:020000040800F2
:1000000000500020D90A0008410A0008470A0008E9
:100010004D0A0008530A0008590A000800000000B1
:100020000000000000000000000000005F0A00085F
:100030006B0A000800000000770A0008830A000825
:10004000210B0008210B0008210B0008210B0008E0
:10005000210B0008210B0008210B0008210B0008D0
:10006000210B0008210B0008210B0008210B0008C0
:10007000210B0008210B0008210B0008210B0008B0
:10008000210B0008210B0008210B0008210B0008A0
:10009000910A0008210B0008210B0008210B000821
:1000A000210B0008A50A0008210B0008210B0008FD
:1000B000210B0008210B0008210B0008210B000870
:1000C000210B0008210B0008210B0008210B000860
:1000D000210B0008B90A0008210B0008210B0008B9
:1000E000210B0008210B0008210B00080000000074
:1000F0000000000000000000000000000000000000
:0C01000000000000000000005FF808F1A3
:10010C0010B5054C237833B9044B13B10448AFF345
:10011C0000800123237010BD7C0100200000000032
:10012C005C94000808B5034B1BB103490348AFF3BB
:10013C00008008BD00000000800100205C940008D5
:10014C0080B582B000AF124B1B68124A1278D340B4
:10015C0003F00103002B0CBF01230023DBB2FB7166
:10016C000C4B1B780133DAB20A4B1A70094B1B7813
:10017C0023F01003DAB2074B1A70FB791A464FF4CE
:10018C000051054801F06EF800BF0837BD4680BD30
:10019C0034040020380400200010014080B483B0E7
:1001AC0000AF78607B681B68084A934209D1084B02
:1001BC001B78002B05D0064B1B78013BDAB2044BA5
:1001CC001A7000BF0C37BD4680BC7047002C014034
:1001DC003004002080B582B000AF78607B681B686B
:1001EC000B4A93420FD10B4B1B780133DAB2094BFC
:1001FC001A70084B1B781A46074B134401221946F8
:10020C00064803F04CFF00BF0837BD4680BD00BF59
:10021C00003801402903002028020020E0010020C2
:10022C0080B582B000AF0346FB71C6E0684B1B780B
:10023C00062B00F2B78001A252F823F065020008E9
:10024C007D020008A7020008D1020008FB0200088A
:10025C0011030008550300085E4B1B781A465E4BD1
:10026C009B5C552B40F0A280594B01221A709DE0EB
:10027C00584B1B781A46584B9B5C4E2B03D1544B56
:10028C0002221A7093E0524B00221A70514B1B78C9
:10029C00013BDAB24F4B1A7089E04E4B1B781A4671
:1002AC004D4B9B5C452B03D1494B03221A707EE0CE
:1002BC00474B00221A70474B1B78013BDAB2454B77
:1002CC001A7074E0434B1B781A46434B9B5C522BC1
:1002DC0003D13F4B04221A7069E03D4B00221A7087
:1002EC003C4B1B78013BDAB23A4B1A705FE0394B4E
:1002FC001B781A46384B9A5C384B1A70344B0522D3
:10030C001A7054E0334B1B781A46334B9B5C3A2BD8
:10031C0010D1304B1B780133DAB2314B1A702C4BA5
:10032C0006221A702D4B1B7883F03603DAB22D4B54
:10033C001A703CE0264B00221A70264B1B78013BAE
:10034C00DAB2244B1A7032E0244B1B78013BDAB240
:10035C00224B1A70214B1B78002B0BD01D4B1B789A
:10036C001A461D4B9A5C1F4B1B785340DAB21D4B3F
:10037C001A701CE0174B1B781A46174B9A5C194BDA
:10038C001B789A4204D1164B1B78184600F02CF8B7
:10039C000F4B00221A700F4B1B78013BDAB20D4B3E
:1003AC001A7004E00A4B00221A7000E000BF094BDF
:1003BC001B780133DAB2074B1A70064B1B78FA79AB
:1003CC009A427FF433AF002318460837BD4680BDF0
:1003DC003B04002028030020280200202F040020CA
:1003EC003C0400202E04002080B489B000AF0346EA
:1003FC00FB710023FB77FB7F5A1CFA7720333B44BD
:10040C00552203F8182CFB7F5A1CFA7720333B44F7
:10041C004E2203F8182CFB7F5A1CFA7720333B44EE
:10042C00452203F8182CFB7F5A1CFA7720333B44E7
:10043C00522203F8182CFB7F5A1CFA7720333B44CA
:10044C00002203F8182CFB7F5A1CFA7720333B440C
:10045C003A2203F8182CFB792C4AD35CF02B12D1DE
:10046C00FB7F5A1CFA7720333B44F02203F8182CFC
:10047C00FB7F5A1CFA7720333B440D2203F8182CCF
:10048C0003233B730AE0FB7F5A1CFA7720333B446F
:10049C00FF2203F8182C02233B7300BF1C4B0022D5
:1004AC001A700023BB771CE0BB7F20333B4413F84E
:1004BC00182C174B1B785340DAB2154B1A70BA7FB5
:1004CC00144B1B78591CC8B212490870194602F11A
:1004DC0020033B4413F8182C0F4B5A54BB7F0133A9
:1004EC00BB77BA7FFB7F9A42DED30A4B1B785A1C30
:1004FC00D1B2084A11701A46054B1978064B99541B
:10050C0000BF2437BD4680BC704700BF28020020C6
:10051C002E0400202D0400202C03002080B483B076
:10052C0000AF78600B467B807B681A78044B1A709E
:10053C00044B01221A7000BF0C37BD4680BC7047BB
:10054C00390400203A04002080B500AF00F0E4FA32
:10055C0000F084F800F056F900F0DAF800F028F911
:10056C0008F04EFA2E4B00221A702D4B1A782D4B98
:10057C001A702D4B0A221A702C4B4FF47F421A60C2
:10058C002B4B00221A702B4803F008F9254B1B78D3
:10059C001A46294B134401221946284803F07FFDC3
:1005AC0001224FF40051264800F05CFE254808F06B
:1005BC005DFB1D4B1B78002B04D11B4B0A221A70C0
:1005CC00FFF7BEFD164B1A78164B1B789A4204D0D7
:1005DC00144B1B781846FFF723FE1B4B1A781B4B4A
:1005EC001B789A420DD0184B1B785A1CD1B2164A64
:1005FC0011701A46164BD118012301220F4803F033
:10060C00CBFC144B1B78002BD3D00121124808F0E3
:10061C0007FB0346002BCCD10E4B00221A70C8E707
:10062C00280300202903002030040020340400207B
:10063C00380400209801002028020020E00100204E
:10064C0000100140290500082C0400202D04002076
:10065C002C0300203A0400203904002080B594B00B
:10066C0000AF07F1280328220021184608F0C4FE29
:10067C0007F1140300221A605A609A60DA601A615A
:10068C003B1D00221A605A609A60DA600123BB623B
:10069C004FF48033FB6200233B630123BB630223D3
:1006AC007B644FF48033BB644FF4E013FB6407F1BD
:1006BC002803184602F05CFB0346002B01D000F027
:1006CC0007F90F237B610223BB610023FB614FF40D
:1006DC0080633B6200237B6207F1140302211846FE
:1006EC0002F0C8FD0346002B01D000F0F1F81023F6
:1006FC007B6000233B613B1D184602F049FF03461B
:10070C00002B01D000F0E4F800BF5037BD4680BD8F
:10071C0080B586B000AF07F1080300221A605A605A
:10072C009A60DA603B4600221A605A601E4B1F4AE0
:10073C001A601D4B47225A601B4B00229A601A4BC1
:10074C0042F21072DA60184B00221A61164B00222A
:10075C005A61154B00229A61134802F0CFFF0346F1
:10076C00002B01D000F0B4F84FF48053BB6007F1BC
:10077C00080319460C4803F06BF90346002B01D013
:10078C0000F0A6F800233B6000237B603B46194633
:10079C00054803F041FB0346002B01D000F098F80C
:1007AC0000BF1837BD4680BD98010020002C0140C9
:1007BC0080B500AF114B124A1A60104B4FF4E13266
:1007CC005A600E4B00229A600C4B0022DA600B4BE5
:1007DC0000221A61094B0C225A61084B00229A61C3
:1007EC00064B0022DA61054803F086FB0346002B1A
:1007FC0001D000F06DF800BF80BD00BFE00100200B
:10080C000038014080B588B000AF07F1100300221A
:10081C001A605A609A60DA602A4B9B69294A43F045
:10082C0010039361274B9B6903F01003FB60FB687B
:10083C00244B9B69234A43F020039361214B9B6912
:10084C0003F02003BB60BB681E4B9B691D4A43F041
:10085C00040393611B4B9B6903F004037B607B686F
:10086C00184B9B69174A43F008039361154B9B691E
:10087C0003F008033B603B6801224FF4005112481F
:10088C0000F0F0FC4FF400533B6101237B6100232B
:10089C00BB610223FB6107F1100319460A4800F003
:1008AC005DFB10233B6100237B610123BB6107F1DE
:1008BC0010031946054800F051FB00BF2037BD4618
:1008CC0080BD00BF0010024000100140000C014030
:1008DC0080B400AF72B600BFFEE7000080B485B0F4
:1008EC0000AF154B9B69144A43F001039361124B03
:1008FC009B6903F00103BB60BB680F4BDB690E4ABD
:10090C0043F08053D3610C4BDB6903F080537B6065
:10091C007B680A4B5B68FB60FB6823F0E063FB6061
:10092C00FB6843F00073FB60044AFB68536000BF34
:10093C001437BD4680BC70470010024000000140D7
:10094C0080B584B000AF78607B681B680D4A934219
:10095C0013D10D4B9B690C4A43F4006393610A4B12
:10096C009B6903F40063FB60FB68002200211920E3
:10097C0000F00BFA192000F024FA00BF1037BD4626
:10098C0080BD00BF002C01400010024080B588B033
:10099C0000AF786007F1100300221A605A609A6069
:1009AC00DA607B681B68204A934239D11F4B9B69E4
:1009BC001E4A43F4804393611C4B9B6903F48043B0
:1009CC00FB60FB68194B9B69184A43F00403936165
:1009DC00164B9B6903F00403BB60BB684FF40073B8
:1009EC003B6102237B610323FB6107F11003194672
:1009FC000F4800F0B3FA4FF480633B6100237B6136
:100A0C000023BB6107F110031946094800F0A6FA50
:100A1C0000220021252000F0B8F9252000F0D1F9A2
:100A2C0000BF2037BD4680BD003801400010024099
:100A3C000008014080B400AFFEE780B400AFFEE7D1
:100A4C0080B400AFFEE780B400AFFEE780B400AF27
:100A5C00FEE780B400AF00BFBD4680BC704780B4D9
:100A6C0000AF00BFBD4680BC704780B400AF00BF74
:100A7C00BD4680BC704780B500AF00F093F800BF56
:100A8C0080BD000080B500AF024800F028FD00BF1B
:100A9C0080BD00BF180B002080B500AF024802F0EB
:100AAC00CFFE00BF80BD00BF9801002080B500AF15
:100ABC00024803F019FB00BF80BD00BFE00100201D
:100ACC0080B400AF00BFBD4680BC7047FFF7F8FF95
:100ADC000B480C490C4A002302E0D458C450043390
:100AEC00C4188C42F9D3094A094C002301E0136065
:100AFC000432A242FBD308F087FCFFF725FD7047B8
:100B0C00000000207C010020F09400087C010020F3
:100B1C0028100020FEE7000080B500AF084B1B68D2
:100B2C00074A43F010031360032000F023F90F2051
:100B3C0000F008F8FFF7D2FE0023184680BD00BF76
:100B4C000020024080B582B000AF7860124B1A686A
:100B5C00124B1B7819464FF47A73B3FBF1F3B2FBCB
:100B6C00F3F3184600F03BF90346002B01D00123A8
:100B7C000EE07B680F2B0AD8002279684FF0FF300B
:100B8C0000F003F9064A7B681360002300E00123A0
:100B9C0018460837BD4680BD000000200800002024
:100BAC000400002080B400AF054B1B781A46054B9F
:100BBC001B681344034A136000BFBD4680BC7047DA
:100BCC00080000204004002080B400AF024B1B68DA
:100BDC001846BD4680BC70474004002080B485B0E8
:100BEC0000AF78607B6803F00703FB600C4BDB689D
:100BFC00BB60BA684FF6FF031340BB60FB681A0278
:100C0C00BB68134343F0BF6343F40033BB60044A37
:100C1C00BB68D36000BF1437BD4680BC704700BFB3
:100C2C0000ED00E080B400AF044BDB681B0A03F05E
:100C3C0007031846BD4680BC704700BF00ED00E0BE
:100C4C0080B483B000AF0346FB7197F90730002BDB
:100C5C000BDBFB7903F01F02064997F907305B09A0
:100C6C00012000FA02F241F8232000BF0C37BD46E8
:100C7C0080BC704700E100E080B483B000AF034655
:100C8C003960FB7197F90730002B0ADB3B68DAB24D
:100C9C000C4997F907301201D2B20B4483F80023A8
:100CAC000AE03B68DAB20849FB7903F00F03043B16
:100CBC001201D2B20B441A7600BF0C37BD4680BC71
:100CCC00704700BF00E100E000ED00E080B489B0A7
:100CDC0000AFF860B9607A60FB6803F00703FB6152
:100CEC00FB69C3F10703042B28BF0423BB61FB6919
:100CFC000433062B02D9FB69033B00E000237B6124
:100D0C004FF0FF32BB6902FA03F3DA43BB681A40B7
:100D1C007B699A404FF0FF317B6901FA03F3D943A9
:100D2C007B680B40134318462437BD4680BC704784
:100D3C0080B582B000AF78607B68013BB3F1807FF7
:100D4C0001D301230FE00A4A7B68013B53600F215A
:100D5C004FF0FF30FFF790FF054B00229A60044BD9
:100D6C0007221A60002318460837BD4680BD00BF15
:100D7C0010E000E080B582B000AF78607868FFF7D3
:100D8C002DFF00BF0837BD4680BD80B586B000AFD3
:100D9C000346B9607A60FB7300237B61FFF742FF67
:100DAC0078617A68B9687869FFF790FF024697F91D
:100DBC000F3011461846FFF75FFF00BF1837BD46CE
:100DCC0080BD80B582B000AF0346FB7197F9073048
:100DDC001846FFF735FF00BF0837BD4680BD80B50C
:100DEC0082B000AF78607868FFF7A2FF0346184620
:100DFC000837BD4680BD80B485B000AF7860002355
:100E0C00FB737B6893F82130DBB2022B08D07B6834
:100E1C0004229A637B68002283F82020012320E0BF
:100E2C007B681B681A687B681B6822F00E021A60CC
:100E3C007B681B681A687B681B6822F001021A60C9
:100E4C007B681A6C7B68DB6B012101FA02F25A6039
:100E5C007B68012283F821207B68002283F8202004
:100E6C00FB7B18461437BD4680BC704780B584B0F8
:100E7C0000AF78600023FB737B6893F82130DBB202
:100E8C00022B05D07B6804229A630123FB7351E08B
:100E9C007B681B681A687B681B6822F00E021A605C
:100EAC007B681B681A687B681B6822F001021A6059
:100EBC007B681B68224A934229D07B681B68214AB5
:100ECC00934222D07B681B681F4A93421AD07B68DE
:100EDC001B681E4A934212D07B681B681C4A9342C3
:100EEC000AD07B681B681B4A934202D14FF48013D3
:100EFC000EE04FF080730BE04FF4803308E04FF4BA
:100F0C00805305E04FF4807302E0102300E00123CE
:100F1C00114A53607B68012283F821207B680022F0
:100F2C0083F820207B685B6B002B03D07B685B6BAA
:100F3C0078689847FB7B18461037BD4680BD00BFCC
:100F4C00080002401C0002403000024044000240F5
:100F5C00580002406C0002400000024080B48BB08C
:100F6C0000AF7860396000237B6200233B6269E14B
:100F7C0001227B6A02FA03F3FB613B681B68FA6986
:100F8C001340BB61BA69FB699A4240F058813B68D7
:100F9C005B689A4A93425ED0984A934275D8984AB5
:100FAC00934258D0964A93426FD8964A934252D065
:100FBC00944A934269D8944A93424CD0924A9342B1
:100FCC0063D8924A934246D0904A93425DD8122BF2
:100FDC002AD8122B59D801A252F823F0631000081A
:100FEC003D1000084F1000089110000897100008E1
:100FFC009710000897100008971000089710000829
:10100C009710000897100008971000089710000818
:10101C009710000897100008971000089710000808
:10102C004510000859100008794A934213D02CE05F
:10103C003B68DB683B6229E03B68DB6804333B625E
:10104C0024E03B68DB6808333B621FE03B68DB68ED
:10105C000C333B621AE03B689B68002B02D10423E3
:10106C003B6213E03B689B68012B05D108233B6274
:10107C007B68FA691A6109E008233B627B68FA69AC
:10108C005A6103E000233B6200E000BFBB69FF2B09
:10109C0001D87B6801E07B6804337B61BB69FF2B63
:1010AC0002D87B6A9B0002E07B6A083B9B003B6199
:1010BC007B691A680F213B6901FA03F3DB431A4081
:1010CC00396A3B6901FA03F31A437B691A603B687E
:1010DC005B6803F08053002B00F0B1804D4B9B6993
:1010EC004C4A43F0010393614A4B9B6903F00103A3
:1010FC00BB60BB68484A7B6A9B08023352F82330BA
:10110C00FB607B6A03F003039B000F2202FA03F3DC
:10111C00DB43FA681340FB607B68404A934213D070
:10112C007B683F4A93420DD07B683E4A934207D07E
:10113C007B683D4A934201D1032306E0042304E07B
:10114C00022302E0012300E000237A6A02F003028A
:10115C0092009340FA681343FB602F497B6A9B080B
:10116C000233FA6841F823203B685B6803F4801370
:10117C00002B06D02D4B9A682C49BB6913438B600E
:10118C0006E02A4B9A68BB69DB43284913408B6005
:10119C003B685B6803F40013002B06D0234BDA6822
:1011AC002249BB691343CB6006E0204BDA68BB696C
:1011BC00DB431E491340CB603B685B6803F4003390
:1011CC00002B06D0194B5A681849BB6913434B6066
:1011DC0006E0164B5A68BB69DB43144913404B605D
:1011EC003B685B6803F48033002B21D00F4B1A68EB
:1011FC000E49BB6913430B6021E000BF00003210A5
:10120C00000031100000221000002110000012100C
:10121C0000001110001002400000014000080140C5
:10122C00000C01400010014000140140000401407A
:10123C000B4B1A68BB69DB43094913400B607B6A93
:10124C0001337B623B681A687B6A22FA03F3002B3A
:10125C007FF48EAE00BF00BF2C37BD4680BC7047FC
:10126C000004014080B483B000AF78600B467B80F3
:10127C0013467B707B78002B03D07A887B681A61CD
:10128C0003E07B881A047B681A6100BF0C37BD46EB
:10129C0080BC7047F0B58BB006AF78607B68002BD4
:1012AC0001D10123F1E07B6893F8A932DBB2002B6A
:1012BC0006D17B68002283F8A822786807F0F2FD3B
:1012CC007B68032283F8A9227B681B68184603F00D
:1012DC00B1FC7B681B683B607E686D4606F11004B0
:1012EC000FCC0FC523682B60331D0ECB386803F071
:1012FC007BFC0346002B05D07B68022283F8A922D5
:10130C000123C2E07B681B680021184603F0ACFC8B
:10131C000023FB7340E0FB7B79685A1C13469B004F
:10132C001344DB000B44013301221A70FB7B7968F8
:10133C005A1C13469B001344DB000B44FA7B1A70B7
:10134C00FB7B79685A1C13469B001344DB000B444F
:10135C00033300221A70FA7B796813469B001344FE
:10136C00DB000B44383300221A60FA7B7968134691
:10137C009B001344DB000B443C3300221A60FA7BC5
:10138C00796813469B001344DB000B444033002266
:10139C001A60FB7B0133FB73FA7B7B685B689A42B8
:1013AC00B9D30023FB7344E0FA7B796813469B00A6
:1013BC001344DB000B4403F2691300221A70FA7B0E
:1013CC00796813469B001344DB000B4403F5B4739C
:1013DC00FA7B1A70FA7B796813469B001344DB0086
:1013EC000B4403F26B1300221A70FA7B79681346D4
:1013FC009B001344DB000B4403F5BC7300221A6002
:10140C00FA7B796813469B001344DB000B4403F50D
:10141C00BE7300221A60FA7B796813469B00134452
:10142C00DB000B4403F5C07300221A60FB7B013315
:10143C00FB73FA7B7B685B689A42B5D37B681B684D
:10144C003B607E686D4606F110040FCC0FC5236817
:10145C002B60331D0ECB386803F012FC0346002BB7
:10146C0005D07B68022283F8A92201230DE07B685A
:10147C00002283F824207B68012283F8A9227B6850
:10148C001B68184605F093FE002318461437BD461A
:10149C00F0BD80B582B000AF78607B6893F8A8325D
:1014AC00012B01D1022316E07B68012283F8A822CC
:1014BC007B681B68184603F0A7FB0121786807F0CE
:1014CC0064FF7B681B68184605F067FE7B6800228A
:1014DC0083F8A822002318460837BD4680BD80B586
:1014EC0088B000AF78607B681B68184605F069FE11
:1014FC00B861BB6903F40043002B03D0786800F09B
:10150C001BFB19E1BB6903F48063002B13D07B68D0
:10151C001B68B3F844309AB27B681B6822F4806273
:10152C0092B2A3F84420786807F037FD0021786860
:10153C0000F005F900E1BB6903F48043002B0CD0EB
:10154C007B681B68B3F844309AB27B681B6822F442
:10155C00804292B2A3F84420EEE0BB6903F400533E
:10156C00002B0CD07B681B68B3F844309AB27B68B4
:10157C001B6822F4005292B2A3F84420DCE0BB6951
:10158C0003F48053002B27D07B681B68B3F84030E2
:10159C009AB27B681B6822F0040292B2A3F8402036
:1015AC007B681B68B3F840309AB27B681B6822F0EA
:1015BC00080292B2A3F84020786807F027FD7B68F8
:1015CC001B68B3F844309AB27B681B6822F48052D3
:1015DC0092B2A3F84420AFE0BB6903F40063002B84
:1015EC0000F083800023FB7710E07B681B681A46B1
:1015FC00FB7F9B001A44FB7F128892B25B00203366
:10160C003B4423F8182CFB7F0133FB77FB7F072B24
:10161C00EBD97B681B68B3F840309AB27B681B68C7
:10162C0042F0010292B2A3F840207B681B68B3F829
:10163C0040309AB27B681B6822F0010292B2A3F888
:10164C00402000BF7B681B68B3F844309BB203F4A6
:10165C008063002BF6D07B681B68B3F844309AB2D9
:10166C007B681B6822F4806292B2A3F844200023AA
:10167C00FB770FE0FB7F7A6812681146FA7F9200C5
:10168C000A445B0020333B4433F8183C1380FB7F47
:10169C000133FB77FB7F072BECD97B681B68B3F816
:1016AC0040309AB27B681B6842F0080292B2A3F8F1
:1016BC0040207B681B68B3F844309AB27B681B6887
:1016CC0022F4006292B2A3F844207B681B68B3F842
:1016DC0040309AB27B681B6842F0040292B2A3F8C5
:1016EC004020786807F078FC26E0BB6903F40073AF
:1016FC00002B0FD07B681B68B3F844309AB27B6820
:10170C001B6822F4007292B2A3F84420786807F0A8
:10171C0036FC11E0BB6903F48073002B0CD07B68A2
:10172C001B68B3F844309AB27B681B6822F4807251
:10173C0092B2A3F8442000BF2037BD4680BD80B5CF
:10174C0082B000AF78600B46FB707B6893F8A832D0
:10175C00012B01D1022313E07B68012283F8A8221C
:10176C007B68FA7883F824207B681B68FA7811462A
:10177C00184605F0FFFC7B68002283F8A8220023A2
:10178C0018460837BD4680BD80B584B000AF786080
:10179C00084611461A460346FB700B463B8013461F
:1017AC00BB700023FB7297F90330002B0EDAFB7829
:1017BC0003F007035A1C13469B001344DB007A68A2
:1017CC001344FB60FB6801225A700EE0FB7803F0B7
:1017DC00070213469B001344DB0003F5B4737A68CD
:1017EC001344FB60FB6800225A70FB7803F007037C
:1017FC00DAB2FB681A703A88FB681A61FB68BA782F
:10180C00DA70BB78022B02D1FB6800221A717B685C
:10181C0093F8A832012B01D102230EE07B68012240
:10182C0083F8A8227B681B68F968184603F048FA0D
:10183C007B68002283F8A822FB7A18461037BD4635
:10184C0080BD80B584B000AF78600B46FB7097F913
:10185C000330002B0EDAFB7803F007035A1C1346F7
:10186C009B001344DB007A681344FB60FB68012285
:10187C005A700EE0FB7803F0070213469B001344EA
:10188C00DB0003F5B4737A681344FB60FB68002239
:10189C005A70FB7803F00703DAB2FB681A707B68A6
:1018AC0093F8A832012B01D102230EE07B680122B0
:1018BC0083F8A8227B681B68F968184603F0C0FD02
:1018CC007B68002283F8A822002318461037BD46F7
:1018DC0080BD80B586B000AFF8607A603B600B4687
:1018EC00FB72FB7A03F0070213469B001344DB00E8
:1018FC0003F5B473FA6813447B617B697A685A61A7
:10190C007B693A689A617B690022DA617B69002203
:10191C005A70FB7A03F00703DAB27B691A70FB6822
:10192C001B687969184603F077FF002318461837AF
:10193C00BD4680BD80B483B000AF78600B46FB70B1
:10194C00FB7803F00702796813469B001344DB0015
:10195C000B4403F5C2731B6818460C37BD4680BC9C
:10196C00704780B586B000AFF8607A603B600B467C
:10197C00FB72FB7A03F007035A1C13469B001344BB
:10198C00DB00FA6813447B617B697A685A617B6976
:10199C003A689A617B69012283F824207B693A6852
:1019AC001A627B690022DA617B6901225A70FB7A28
:1019BC0003F00703DAB27B691A70FB681B6879695C
:1019CC00184603F029FF002318461837BD4680BD82
:1019DC0080B584B000AF78600B46FB70FB7803F0E9
:1019EC0007027B685B689A4201D901234CE097F9A6
:1019FC000330002B0EDAFB7803F007035A1C134656
:101A0C009B001344DB007A681344FB60FB680122E3
:101A1C005A700CE0FA7813469B001344DB0003F574
:101A2C00B4737A681344FB60FB6800225A70FB683D
:101A3C0001229A70FB7803F00703DAB2FB681A7084
:101A4C007B6893F8A832012B01D102231CE07B6840
:101A5C00012283F8A8227B681B68F968184605F0F8
:101A6C008CFAFB7803F00703002B08D17B681A680B
:101A7C007B6803F52C731946104605F0B1FB7B68A7
:101A8C00002283F8A822002318461037BD4680BDDB
:101A9C0080B584B000AF78600B46FB70FB7803F028
:101AAC000F027B685B689A4201D9012340E097F9E9
:101ABC000330002B0EDAFB7803F007035A1C134695
:101ACC009B001344DB007A681344FB60FB68012223
:101ADC005A700EE0FB7803F0070213469B00134488
:101AEC00DB0003F5B4737A681344FB60FB680022D7
:101AFC005A70FB6800229A70FB7803F00703DAB285
:101B0C00FB681A707B6893F8A832012B01D1022371
:101B1C000EE07B68012283F8A8227B681B68F968B9
:101B2C00184605F07AFA7B68002283F8A822002375
:101B3C0018461037BD4680BD80B596B000AF7860B2
:101B4C00BFE37B681B68B3F84430A7F84E30B7F896
:101B5C004E30DBB203F00F0387F84D3097F84D3061
:101B6C00002B40F07981B7F84E3003F01003002BB6
:101B7C0052D17B681B681B889BB223F4E14323F092
:101B8C007003FB817B681A68FB896FEA43436FEA39
:101B9C0053439BB213807B6828337B657B681B683F
:101BAC00B3F850309BB21A467B6D1B78DB001344A4
:101BBC0002335B007A681268134403F580631B8858
:101BCC00C3F309027B6DDA617B6D5A697B6DDB694E
:101BDC001A447B6D5A610021786807F0B6F97B686E
:101BEC0093F82430DBB2002B00F06B837B6D9B6988
:101BFC00002B40F066837B6893F82430DBB263F0F3
:101C0C007F03DAB27B681B6892B2A3F84C207B6826
:101C1C00002283F8242054E37B6803F5B4737B65BE
:101C2C007B681B681B88A7F84A30B7F84A3003F466
:101C3C000063002B34D07B681B68B3F850309BB228
:101C4C001A467B6D1B78DB00134406335B007A6805
:101C5C001268134403F580631B88C3F309027B6D80
:101C6C00DA617B6818687B6803F52C717B6DDA8808
:101C7C007B6DDB699BB205F003FB7B681B681B88E3
:101C8C009AB240F68F7313403B827B681B683A8A8A
:101C9C0042F0800292B21A80786807F029F910E3BA
:101CAC00B7F94A30002B80F20C837B681B681B88C9
:101CBC009AB240F68F731340FB837B681B68FA8BD8
:101CCC0042F0800292B21A807B681B68B3F85030E5
:101CDC009BB21A467B6D1B78DB00134406335B000A
:101CEC007A681268134403F580631B88C3F30902F6
:101CFC007B6DDA617B6DDB69002B19D07B6D5B69C9
:101D0C00002B15D07B6818687B6D59697B6DDA8860
:101D1C007B6DDB699BB205F0B3FA7B6D5A697B6D09
:101D2C00DB691A447B6D5A610021786807F0F2F880
:101D3C007B681B681B88A7F84A30B7F84A3003F455
:101D4C000063002B40F0BD82B7F84A3003F44053D7
:101D5C00B3F5405F00F0B5827B681B68BB617B68A4
:101D6C001B68B3F850309BB21A46BB691344BB6175
:101D7C00BB6903F20C437B617B691B889BB2C3F389
:101D8C0009039AB27B691A807B6D1B693E2B1DD9A6
:101D9C007B6D1B695B097B647B6D1B6903F01F0307
:101DAC00002B02D17B6C013B7B647B691B889AB254
:101DBC007B6C9BB29B029BB213439BB26FEA434377
:101DCC006FEA53439AB27B691A8026E07B6D1B69DC
:101DDC00002B0AD17B691B889BB26FEA43436FEAE5
:101DEC0053439AB27B691A8017E07B6D1B695B08C1
:101DFC007B647B6D1B6903F00103002B02D07B6CB1
:101E0C0001337B647B691B889AB27B6C9BB29B020F
:101E1C009BB213439AB27B691A807B681B681B8840
:101E2C009BB223F4804323F070037B827B8A83F480
:101E3C0080537B827B8A83F400537B827B681A6895
:101E4C007B8A43F07F4343F47F0343F4004343F026
:101E5C0080039BB2138034E27B681B681A4697F8A8
:101E6C004D309B0013441B88A7F84A30B7F94A3011
:101E7C00002B80F2FC807B681B681A4697F84D306B
:101E8C009B0013441B889AB240F68F731340A7F83B
:101E9C0048307B681B681A4697F84D309B001344FA
:101EAC00B7F8482042F0800292B21A8097F84D2081
:101EBC0013469B001344DB0003F5B4737A68134498
:101ECC007B657B6D1B7B002B25D17B681B68B3F876
:101EDC0050309BB21A467B6D1B78DB0013440633E3
:101EEC005B007A681268134403F580631B88C3F3A4
:101EFC000903A7F85030B7F85030002B00F092804F
:101F0C007B6818687B6D59697B6DDA88B7F850303F
:101F1C0005F0B6F986E07B6DDB78022B0AD1B7F8B9
:101F2C004A301A46796D786800F0D9F90346A7F85B
:101F3C00503077E07B681B681A467B6D1B789B00E2
:101F4C0013441B889BB223F4E04323F07003A7F8DF
:101F5C0052307B681B681A467B6D1B789B001A44B9
:101F6C00B7F8523043F07F4343F47F0343F400430C
:101F7C0043F0C0039BB213807B681B681A467B6DD1
:101F8C001B789B0013441B889BB203F48043002BEB
:101F9C0024D07B681B68B3F850309BB21A467B6D1B
:101FAC001B78DB00134402335B007A68126813441D
:101FBC0003F580631B88C3F30903A7F85030B7F807
:101FCC005030002B2ED07B6818687B6D59697B6D67
:101FDC001A89B7F8503005F053F923E07B681B6879
:101FEC00B3F850309BB21A467B6D1B78DB00134460
:101FFC0006335B007A681268134403F580631B8810
:10200C00C3F30903A7F85030B7F85030002B09D0B0
:10201C007B6818687B6D59697B6D5A89B7F85030AD
:10202C0005F02EF97B6DDA69B7F850301A447B6DE8
:10203C00DA617B6D5A69B7F850301A447B6D5A617E
:10204C007B6D9B69002B05D0B7F850207B6D1B690D
:10205C009A4206D27B6D1B781946786806F05AFFB7
:10206C0005E07B681B68796D184603F0D5FBB7F863
:10207C004A3003F08003002B00F0238197F84D3099
:10208C005A1C13469B001344DB007A6813447B658F
:10209C007B681B681A4697F84D309B0013441B88CD
:1020AC009BB223F4E14323F07003A7F842307B6822
:1020BC001B681A4697F84D309B001A44B7F842300B
:1020CC006FEA43436FEA53439BB213807B6DDB781B
:1020DC00012B40F0A2807B6D00229A617B6D1B7BF3
:1020EC00002B00F09380B7F84A3003F04003002B2C
:1020FC0046D07B6D5B78002B26D17B681B687B629E
:10210C007B681B68B3F850309BB21A467B6A134449
:10211C007B627B6D1B781A017B6A134403F20443C8
:10212C003B623B6A1B889BB2C3F309039AB23B6ABE
:10213C001A803B6A1B889BB26FEA43436FEA534396
:10214C009AB23B6A1A8061E07B6D5B78012B5DD1A2
:10215C007B681B68FB627B681B68B3F850309BB2D2
:10216C001A46FB6A1344FB627B6D1B781A01FB6AEF
:10217C00134403F20443BB62BB6A00221A8045E09D
:10218C007B681B68FB637B6D5B78002B26D17B68BF
:10219C001B687B637B681B68B3F850309BB21A4694
:1021AC007B6B13447B637B6D1B781A017B6B134435
:1021BC0003F20C433B633B6B1B889BB2C3F30903D9
:1021CC009AB23B6B1A803B6B1B889BB26FEA434302
:1021DC006FEA53439AB23B6B1A8017E07B6D5B78C6
:1021EC00012B13D17B681B68B3F850309BB21A4695
:1021FC00FB6B1344FB637B6D1B781A01FB6B134465
:10220C0003F20C43BB63BB6B00221A807B6D1B7803
:10221C001946786806F099FE53E0B7F84A3003F493
:10222C008073002B46D17B681B68B3F850309BB28F
:10223C001A467B6D1B78DB00134402335B007A6813
:10224C001268134403F580631B88C3F30903A7F8D2
:10225C0040307B6D9A69B7F840309A4207D97B6D54
:10226C009A69B7F84030D21A7B6D9A6102E07B6DA7
:10227C0000229A617B6D9B69002B06D17B6D1B78CC
:10228C001946786806F061FE1BE07B6D5A69B7F859
:10229C0040301A447B6D5A617B6DDA69B7F8403077
:1022AC001A447B6DDA617B681B68796D184603F004
:1022BC00B3FA06E0B7F84A301A46796D786800F040
:1022CC001BF97B681B68B3F844309BB21BB2002B24
:1022DC00FFF637AC002318465837BD4680BD80B595
:1022EC0088B000AFF860B9601346FB80FB8803F43C
:1022FC008043002B7ED0FB681B68B3F850309BB238
:10230C001A46BB681B78DB00134402335B00FA6887
:10231C001268134403F580631B88C3F309037B83A2
:10232C00BB689A697B8B9A4206D3BB689A697B8B94
:10233C00D21ABB689A6102E0BB6800229A61BB6842
:10234C009B69002B23D1FB681B681A46BB681B7862
:10235C009B0013441B889BB223F4804323F070032F
:10236C003B833B8B83F400533B83FB681B681A460F
:10237C00BB681B789B001A443B8B43F07F4343F4B0
:10238C007F0343F4004343F080039BB21380FB882C
:10239C0003F04003002B1FD0FB681B681A46BB6878
:1023AC001B789B0013441B889BB223F4E04323F05F
:1023BC007003FB82FB681B681A46BB681B789B008A
:1023CC001A44FB8A43F07F4343F47F0343F40043F6
:1023DC0043F0C0039BB213807B8B002B00F08780F3
:1023EC00FB681868BB685969BB681A897B8B04F059
:1023FC0047FF7CE0FB681B68B3F850309BB21A4671
:10240C00BB681B78DB00134406335B00FA68126868
:10241C00134403F580631B88C3F309037B83BB68F8
:10242C009A697B8B9A4206D3BB689A697B8BD21ACA
:10243C00BB689A6102E0BB6800229A61BB689B6929
:10244C00002B23D1FB681B681A46BB681B789B00CA
:10245C0013441B889BB223F4804323F07003FB834B
:10246C00FB8B83F40053FB83FB681B681A46BB6829
:10247C001B789B001A44FB8B43F07F4343F47F0390
:10248C0043F4004343F080039BB21380FB8803F0BA
:10249C004003002B1FD1FB681B681A46BB681B78D6
:1024AC009B0013441B889BB223F4E04323F070037E
:1024BC00BB83FB681B681A46BB681B789B001A44DD
:1024CC00BB8B43F07F4343F47F0343F4004343F05F
:1024DC00C0039BB213807B8B002B08D0FB68186861
:1024EC00BB685969BB685A897B8B04F0C9FE7B8B2E
:1024FC0018462037BD4680BD80B5A4B000AFF8604B
:10250C00B9601346FB80FB8803F04003002B00F0FE
:10251C00DD81FB681B68B3F850309BB21A46BB6870
:10252C001B78DB00134402335B00FA681268134417
:10253C0003F580631B88C3F30903A7F88630BB68D7
:10254C009A69B7F886309A4207D9BB689A69B7F886
:10255C008630D21ABB689A6102E0BB6800229A618D
:10256C00BB689B69002B40F0B980BB685B78002B83
:10257C0026D1FB681B68FB62FB681B68B3F8503004
:10258C009BB21A46FB6A1344FB62BB681B781A01A8
:10259C00FB6A134403F20443BB62BB6A1B889BB205
:1025AC00C3F309039AB2BB6A1A80BB6A1B889BB23D
:1025BC006FEA43436FEA53439AB2BB6A1A801AE03C
:1025CC00BB685B78012B16D1FB681B687B63FB68CF
:1025DC001B68B3F850309BB21A467B6B13447B6379
:1025EC00BB681B781A017B6B134403F204433B63F7
:1025FC003B6B00221A80FB681B687B62BB685B78B4
:10260C00002B26D1FB681B68FB61FB681B68B3F8C9
:10261C0050309BB21A46FB691344FB61BB681B78B4
:10262C001A01FB69134403F20C43BB61BB691B88A1
:10263C009BB2C3F309039AB2BB691A80BB691B88AE
:10264C009BB26FEA43436FEA53439AB2BB691A8059
:10265C0017E0BB685B78012B13D1FB681B68B3F8E0
:10266C0050309BB21A467B6A13447B62BB681B7862
:10267C001A017B6A134403F20C433B623B6A00224F
:10268C001A80BB681B781946F86806F05EFCFB885C
:10269C0003F48043002B00F0FC82FB681B681A4695
:1026AC00BB681B789B0013441B889BB223F4E0434C
:1026BC0023F07003FB82FB681B681A46BB681B780F
:1026CC009B001A44FB8A43F07F4343F47F0343F49B
:1026DC00404343F080039BB21380DAE2FB8803F49F
:1026EC008043002B21D0FB681B681A46BB681B7803
:1026FC009B0013441B889BB223F4E04323F070032C
:10270C00A7F88A30FB681B681A46BB681B789B00CD
:10271C001A44B7F88A3043F07F4343F47F0343F401
:10272C00404343F080039BB21380BB6893F8243082
:10273C00012B40F0AE82BB685A69B7F886301A4458
:10274C00BB685A61BB68DA69B7F886301A44BB6853
:10275C00DA61BB681A6ABB681B699A420BD3BB6807
:10276C001B69C7F88C30BB681A6AD7F88C30D21A40
:10277C00BB681A6217E0BB681B6A002B08D1B7F85C
:10278C008630C7F88C30BB68002283F824200AE01E
:10279C00BB68002283F82420BB681B6AC7F88C3006
:1027AC00BB6800221A62BB685B78002B65D1FB68A2
:1027BC001B68FB63FB681B68B3F850309BB21A466E
:1027CC00FB6B1344FB63BB681B781A01FB6B134454
:1027DC0003F20443BB63BB6B1B889BB2C3F30903BB
:1027EC009AB2BB6B1A80D7F88C303E2B1DD9D7F818
:1027FC008C305B09BB64D7F88C3003F01F03002BC3
:10280C0002D1BB6C013BBB64BB6B1B889AB2BB6C2B
:10281C009BB29B029BB213439BB26FEA43436FEA9A
:10282C0053439AB2BB6B1A8044E0D7F88C30002B20
:10283C000AD1BB6B1B889BB26FEA43436FEA5343CD
:10284C009AB2BB6B1A8035E0D7F88C305B08BB644E
:10285C00D7F88C3003F00103002B02D0BB6C013392
:10286C00BB64BB6B1B889AB2BB6C9BB29B029BB2CA
:10287C0013439AB2BB6B1A801CE0BB685B78012BCC
:10288C0018D1FB681B687B64FB681B68B3F850307D
:10289C009BB21A467B6C13447B64BB681B781A0191
:1028AC007B6C134403F204433B64D7F88C309AB22C
:1028BC003B6C1A80FB681868BB685969BB681A893D
:1028CC00D7F88C309BB204F096FCE2E1FB681B68F5
:1028DC00B3F850309BB21A46BB681B78DB0013442C
:1028EC0006335B00FA681268134403F580631B8897
:1028FC00C3F30903A7F88630BB689A69B7F886302A
:10290C009A4207D3BB689A69B7F88630D21ABB686B
:10291C009A6102E0BB6800229A61BB689B69002B3C
:10292C0040F0C080BB685B78002B26D1FB681B682D
:10293C00FB67FB681B68B3F850309BB21A46FB6F01
:10294C001344FB67BB681B781A01FB6F134403F23B
:10295C000443BB67BB6F1B889BB2C3F309039AB2DA
:10296C00BB6F1A80BB6F1B889BB26FEA43436FEA45
:10297C0053439AB2BB6F1A801AE0BB685B78012B89
:10298C0016D1FB681B687B66FB681B68B3F850307C
:10299C009BB21A467B6E13447B66BB681B781A018C
:1029AC007B6E134403F204433B663B6E00221A8099
:1029BC00FB681B687B67BB685B78002B2BD1FB68C3
:1029CC001B68FB66FB681B68B3F850309BB21A4659
:1029DC00FB6E1344FB66BB681B781A01FB6E134439
:1029EC0003F20C43C7F88030D7F880301B889BB2B9
:1029FC00C3F309039AB2D7F880301A80D7F8803025
:102A0C001B889BB26FEA43436FEA53439AB2D7F8E1
:102A1C0080301A8017E0BB685B78012B13D1FB6800
:102A2C001B68B3F850309BB21A467B6F13447B671C
:102A3C00BB681B781A017B6F134403F20C433B6792
:102A4C003B6F00221A80BB681B781946F86806F0A9
:102A5C007CFAFB8803F48043002B40F01A81FB685E
:102A6C001B681A46BB681B789B0013441B889BB2DF
:102A7C0023F4E04323F07003A7F88830FB681B684D
:102A8C001A46BB681B789B001A44B7F8883043F091
:102A9C007F4343F47F0343F4404343F080039BB2F2
:102AAC001380F6E0FB8803F48043002B21D1FB68F4
:102ABC001B681A46BB681B789B0013441B889BB28F
:102ACC0023F4E04323F07003A7F84E30FB681B6837
:102ADC001A46BB681B789B001A44B7F84E3043F07B
:102AEC007F4343F47F0343F4404343F080039BB2A2
:102AFC001380BB6893F82430012B40F0CA80BB686C
:102B0C005A69B7F886301A44BB685A61BB68DA69EF
:102B1C00B7F886301A44BB68DA61BB681A6ABB68BE
:102B2C001B699A420BD3BB681B69C7F88C30BB6816
:102B3C001A6AD7F88C30D21ABB681A6217E0BB68D5
:102B4C001B6A002B08D1B7F88630C7F88C30BB68ED
:102B5C00002283F824200AE0BB681B6AC7F88C307B
:102B6C00BB6800221A62BB68002283F82420FB6831
:102B7C001B687B65BB685B78002B65D1FB681B68A9
:102B8C00FB65FB681B68B3F850309BB21A46FB6DB3
:102B9C001344FB65BB681B781A01FB6D134403F2ED
:102BAC000C43BB65BB6D1B889BB2C3F309039AB284
:102BBC00BB6D1A80D7F88C303E2B1DD9D7F88C30D2
:102BCC005B09BB66D7F88C3003F01F03002B02D1D6
:102BDC00BB6E013BBB66BB6D1B889AB2BB6E9BB2D6
:102BEC009B029BB213439BB26FEA43436FEA53437E
:102BFC009AB2BB6D1A8041E0D7F88C30002B0AD109
:102C0C00BB6D1B889BB26FEA43436FEA53439AB286
:102C1C00BB6D1A8032E0D7F88C305B08BB66D7F8F6
:102C2C008C3003F00103002B02D0BB6E0133BB666A
:102C3C00BB6D1B889AB2BB6E9BB29B029BB21343BB
:102C4C009AB2BB6D1A8019E0BB685B78012B15D169
:102C5C00FB681B68B3F850309BB21A467B6D13446B
:102C6C007B65BB681B781A017B6D134403F20C4324
:102C7C003B65D7F88C309AB23B6D1A80FB681868AC
:102C8C00BB685969BB685A89D7F88C309BB204F081
:102C9C00B2FAFB681B681A46BB681B789B0013448E
:102CAC001B889BB223F4E04323F04003BB82BB8A16
:102CBC0083F01003BB82BB8A83F02003BB82FB68CA
:102CCC001B681A46BB681B789B001A44BB8A43F0EE
:102CDC007F4343F47F0343F4004343F080039BB2F0
:102CEC001380002318469037BD4680BD80B487B052
:102CFC0000AFF8607B600B467B8113463B817B8980
:102D0C0003F080039BB2002B0BD07B8903F00703ED
:102D1C005A1C13469B001344DB00FA6813447B6176
:102D2C0009E07A8913469B001344DB0003F5B47366
:102D3C00FA6813447B613B89002B07D17B69002225
:102D4C001A737B689AB27B69DA800BE07B6901228B
:102D5C001A737B689AB27B691A817B681B0C9AB2D6
:102D6C007B695A81002318461C37BD4680BC7047CE
:102D7C0080B586B000AF78607B68002B01D1012351
:102D8C0072E27B681B6803F00103002B00F0878064
:102D9C00924B5B6803F00C03042B0CD08F4B5B68DD
:102DAC0003F00C03082B12D18C4B5B6803F48033BB
:102DBC00B3F5803F0BD1894B1B6803F40033002B18
:102DCC006CD07B685B68002B68D101234CE27B687C
:102DDC005B68B3F5803F06D1804B1B687F4A43F498
:102DEC00803313602EE07B685B68002B0CD17B4B2F
:102DFC001B687A4A23F480331360784B1B68774A3C
:102E0C0023F4802313601DE07B685B68B3F5A02F6F
:102E1C000CD1724B1B68714A43F4802313606F4BC7
:102E2C001B686E4A43F4803313600BE06B4B1B68DA
:102E3C006A4A23F480331360684B1B68674A23F497
:102E4C00802313607B685B68002B13D0FDF7BCFEFE
:102E5C00386108E0FDF7B8FE02463B69D31A642BD3
:102E6C0001D9032300E25D4B1B6803F40033002BF4
:102E7C00F0D014E0FDF7A8FE386108E0FDF7A4FEE1
:102E8C0002463B69D31A642B01D90323ECE1534B63
:102E9C001B6803F40033002BF0D100E000BF7B680B
:102EAC001B6803F00203002B63D04C4B5B6803F0F0
:102EBC000C03002B0BD0494B5B6803F00C03082B65
:102ECC001CD1464B5B6803F48033002B16D1434B6B
:102EDC001B6803F00203002B05D07B681B69012BD8
:102EEC0001D00123C0E13D4B1B6823F0F8027B6845
:102EFC005B69DB00394913430B603AE07B681B6963
:102F0C00002B20D0364B01221A60FDF75DFE386194
:102F1C0008E0FDF759FE02463B69D31A022B01D992
:102F2C000323A1E12D4B1B6803F00203002BF0D00F
:102F3C002A4B1B6823F0F8027B685B69DB0027498E
:102F4C0013430B6015E0264B00221A60FDF73CFE84
:102F5C00386108E0FDF738FE02463B69D31A022BB4
:102F6C0001D9032380E11D4B1B6803F00203002BE6
:102F7C00F0D17B681B6803F00803002B3AD07B6808
:102F8C009B69002B19D0174B01221A60FDF71CFE10
:102F9C00386108E0FDF718FE02463B69D31A022B94
:102FAC0001D9032360E10D4B5B6A03F00203002B94
:102FBC00F0D0012000F0CEFA1CE00A4B00221A607F
:102FCC00FDF702FE38610FE0FDF7FEFD02463B699E
:102FDC00D31A022B08D9032346E100BF001002408C
:102FEC000000424280044242924B5B6A03F00203AF
:102FFC00002BE9D17B681B6803F00403002B00F065
:10300C00A6800023FB758B4BDB6903F08053002BF0
:10301C000DD1884BDB69874A43F08053D361854BD4
:10302C00DB6903F08053BB60BB680123FB75824BEB
:10303C001B6803F48073002B18D17F4B1B687E4AEE
:10304C0043F480731360FDF7BFFD386108E0FDF7B2
:10305C00BBFD02463B69D31A642B01D9032303E160
:10306C00754B1B6803F48073002BF0D07B68DB6816
:10307C00012B06D16F4B1B6A6E4A43F0010313629E
:10308C002DE07B68DB68002B0CD16A4B1B6A694A0C
:10309C0023F001031362674B1B6A664A23F0040397
:1030AC0013621CE07B68DB68052B0CD1614B1B6A3F
:1030BC00604A43F0040313625E4B1B6A5D4A43F0A3
:1030CC00010313620BE05B4B1B6A5A4A23F00103AA
:1030DC001362584B1B6A574A23F0040313627B6834
:1030EC00DB68002B15D0FDF76FFD38610AE0FDF7AA
:1030FC006BFD02463B69D31A41F28832934201D9E7
:10310C000323B1E04B4B1B6A03F00203002BEED000
:10311C0014E0FDF759FD38610AE0FDF755FD024654
:10312C003B69D31A41F28832934201D903239BE0C5
:10313C00404B1B6A03F00203002BEED1FB7D012BED
:10314C0005D13C4BDB693B4A23F08053D3617B6850
:10315C00DB69002B00F08780364B5B6803F00C03B7
:10316C00082B61D07B68DB69022B46D1334B0022E4
:10317C001A60FDF729FD386108E0FDF725FD0246D0
:10318C003B69D31A022B01D903236DE0294B1B6831
:10319C0003F00073002BF0D17B681B6AB3F5803F02
:1031AC0008D1244B5B6823F400327B689B6821496F
:1031BC0013434B601F4B5B6823F474127B68196AD2
:1031CC007B685B6A0B431B4913434B601B4B01220F
:1031DC001A60FDF7F9FC386108E0FDF7F5FC0246D2
:1031EC003B69D31A022B01D903233DE0114B1B6819
:1031FC0003F00073002BF0D035E0104B00221A6066
:10320C00FDF7E2FC386108E0FDF7DEFC02463B69A5
:10321C00D31A022B01D9032326E0064B1B6803F0BB
:10322C000073002BF0D11EE07B68DB69012B07D10A
:10323C00012319E00010024000700040600042427F
:10324C000B4B5B68FB60FB6803F480327B681B6A8A
:10325C009A4206D1FB6803F470127B685B6A9A424F
:10326C0001D0012300E0002318461837BD4680BD6D
:10327C000010024080B584B000AF786039607B6884
:10328C00002B01D10123D0E06A4B1B6803F007032C
:10329C003A689A4210D9674B1B6823F007026549BC
:1032AC003B6813430B60634B1B6803F007033A68DE
:1032BC009A4201D00123B8E07B681B6803F002033B
:1032CC00002B20D07B681B6803F00403002B05D077
:1032DC00594B5B68584A43F4E06353607B681B6846
:1032EC0003F00803002B05D0534B5B68524A43F4A0
:1032FC0060535360504B5B6823F0F0027B689B6813
:10330C004D4913434B607B681B6803F00103002B92
:10331C0040D07B685B68012B07D1474B1B6803F4DB
:10332C000033002B15D101237FE07B685B68022BF7
:10333C0007D1414B1B6803F00073002B09D101230B
:10334C0073E03D4B1B6803F00203002B01D10123FA
:10335C006BE0394B5B6823F003027B685B68364992
:10336C0013434B60FDF730FCF8600AE0FDF72CFCD2
:10337C000246FB68D31A41F28832934201D90323E7
:10338C0053E02D4B5B6803F00C027B685B689B0081
:10339C009A42EBD1274B1B6803F007033A689A4219
:1033AC0010D2244B1B6823F0070222493B681343BD
:1033BC000B60204B1B6803F007033A689A4201D05C
:1033CC00012332E07B681B6803F00403002B08D058
:1033DC00194B5B6823F4E0627B68DB681649134386
:1033EC004B607B681B6803F00803002B09D0124B61
:1033FC005B6823F460527B681B69DB000E49134346
:10340C004B6000F021F802460B4B5B681B0903F084
:10341C000F030A49CB5C22FA03F3094A1360094BE8
:10342C001B681846FDF78EFB002318461037BD4667
:10343C0080BD00BF0020024000100240BC94000878
:10344C00000000200400002080B487B000AF0023EF
:10345C00FB600023BB6000237B6100237B600023A7
:10346C003B611E4B5B68FB60FB6803F00C03042B99
:10347C0002D0082B03D027E0194B3B6127E0FB68F7
:10348C009B0C03F00F03174AD35C7B60FB6803F4BF
:10349C008033002B10D0114B5B685B0C03F00103E5
:1034AC00114AD35CBB607B680D4A03FB02F2BB681C
:1034BC00B2FBF3F37B6104E07B680C4A02FB03F381
:1034CC007B617B693B6102E0054B3B6100BF3B6963
:1034DC0018461C37BD4680BC704700BF0010024028
:1034EC0000127A00D4940008E494000800093D000E
:1034FC0080B400AF024B1B681846BD4680BC7047B9
:10350C000000002080B500AFFFF7F2FF0246054B2C
:10351C005B681B0A03F007030349CB5C22FA03F335
:10352C00184680BD00100240CC94000880B500AF56
:10353C00FFF7DEFF0246054B5B68DB0A03F007036F
:10354C000349CB5C22FA03F3184680BD00100240FD
:10355C00CC94000880B485B000AF78600A4B1B682F
:10356C000A4AA2FB03235B0A7A6802FB03F3FB60A3
:10357C0000BFFB685A1EFA60002BF9D100BF00BFD8
:10358C001437BD4680BC704700000020D34D62103C
:10359C0080B586B000AF786000233B610023FB60F0
:1035AC007B681B6803F00103002B7DD00023FB75A7
:1035BC004F4BDB6903F08053002B0DD14C4BDB6977
:1035CC004B4A43F08053D361494BDB6903F0805382
:1035DC00BB60BB680123FB75464B1B6803F480730F
:1035EC00002B18D1434B1B68424A43F48073136081
:1035FC00FDF7EAFA386108E0FDF7E6FA02463B69A6
:10360C00D31A642B01D903236DE03A4B1B6803F4E6
:10361C008073002BF0D0364B1B6A03F44073FB60B5
:10362C00FB68002B2ED07B685B6803F44073FA6850
:10363C009A4227D02E4B1B6A23F44073FB602E4B0F
:10364C0001221A602C4B00221A60294AFB68136273
:10365C00FB6803F00103002B14D0FDF7B5FA3861B9
:10366C000AE0FDF7B1FA02463B69D31A41F28832FF
:10367C00934201D9032336E01D4B1B6A03F002036E
:10368C00002BEED01A4B1B6A23F440727B685B68EC
:10369C00174913430B62FB7D012B05D1144BDB69DE
:1036AC00134A23F08053D3617B681B6803F0020339
:1036BC00002B08D00E4B5B6823F440427B689B6860
:1036CC000B4913434B607B681B6803F01003002B02
:1036DC0008D0074B5B6823F480027B68DB680449E5
:1036EC0013434B60002318461837BD4680BD00BFFE
:1036FC0000100240007000404004424280B582B08D
:10370C0000AF78607B68002B01D1012341E07B681E
:10371C0093F83D30DBB2002B06D17B68002283F896
:10372C003C207868FDF70CF97B68022283F83D2079
:10373C007B681A687B6804331946104600F074FAEB
:10374C007B68012283F846207B68012283F83E20A7
:10375C007B68012283F83F207B68012283F840209C
:10376C007B68012283F841207B68012283F8422088
:10377C007B68012283F843207B68012283F8442074
:10378C007B68012283F845207B68012283F83D2069
:10379C00002318460837BD4680BD000080B485B0B4
:1037AC0000AF78607B6893F83D30DBB2012B01D021
:1037BC0001233AE07B68022283F83D207B681B687A
:1037CC00DA687B681B6842F00102DA607B681B6870
:1037DC00184A93420ED07B681B68B3F1804F09D016
:1037EC007B681B68144A934204D07B681B68134A9D
:1037FC00934211D17B681B689B6803F00703FB6045
:10380C00FB68062B10D07B681B681A687B681B68EA
:10381C0042F001021A6007E07B681B681A687B683B
:10382C001B6842F001021A60002318461437BD468B
:10383C0080BC7047002C0140000400400008004090
:10384C0080B582B000AF78607B681B681B6903F0A1
:10385C000203022B22D17B681B68DB6803F0020396
:10386C00022B1BD17B681B686FF002021A617B680C
:10387C0001221A777B681B689B6903F00303002BFA
:10388C0003D0786800F0B4F905E0786800F0A7F987
:10389C00786800F0B6F97B6800221A777B681B68A1
:1038AC001B6903F00403042B22D17B681B68DB68C3
:1038BC0003F00403042B1BD17B681B686FF004021C
:1038CC001A617B6802221A777B681B689B6903F478
:1038DC004073002B03D0786800F08AF905E0786813
:1038EC0000F07DF9786800F08CF97B6800221A777B
:1038FC007B681B681B6903F00803082B22D17B68CB
:10390C001B68DB6803F00803082B1BD17B681B6862
:10391C006FF008021A617B6804221A777B681B68B7
:10392C00DB6903F00303002B03D0786800F060F927
:10393C0005E0786800F053F9786800F062F97B686C
:10394C0000221A777B681B681B6903F01003102B8D
:10395C0022D17B681B68DB6803F01003102B1BD192
:10396C007B681B686FF010021A617B6808221A775B
:10397C007B681B68DB6903F44073002B03D0786809
:10398C0000F036F905E0786800F029F9786800F065
:10399C0038F97B6800221A777B681B681B6903F077
:1039AC000103012B0ED17B681B68DB6803F001035C
:1039BC00012B07D17B681B686FF001021A617868D4
:1039CC00FCF7ECFB7B681B681B6903F08003802B06
:1039DC000ED17B681B68DB6803F08003802B07D15A
:1039EC007B681B686FF080021A61786800F07BFAC4
:1039FC007B681B681B6903F04003402B0ED17B686E
:103A0C001B68DB6803F04003402B07D17B681B6805
:103A1C006FF040021A61786800F0FCF87B681B6854
:103A2C001B6903F02003202B0ED17B681B68DB681D
:103A3C0003F02003202B07D17B681B686FF020025A
:103A4C001A61786800F046FA00BF0837BD4680BDA1
:103A5C0080B584B000AF786039600023FB737B685D
:103A6C0093F83C30012B01D10223B4E07B68012296
:103A7C0083F83C207B68022283F83D207B681B681E
:103A8C009B68BB60BB6823F07703BB60BB6823F407
:103A9C007F43BB607B681B68BA689A603B681B6895
:103AAC00B3F5005F3ED0B3F5005F00F28780B3F54D
:103ABC00805F00F08680B3F5805F7FD8702B1AD0C2
:103ACC00702B7BD8602B50D0602B77D8502B3CD0F0
:103ADC00502B73D8402B58D0402B6FD8302B64D040
:103AEC00302B6BD8202B60D0202B67D8002B5CD0D0
:103AFC00102B5AD062E07B6818683B6899683B6869
:103B0C005A683B68DB6800F068F97B681B689B6847
:103B1C00BB60BB6843F07703BB607B681B68BA680B
:103B2C009A604FE07B6818683B6899683B685A68F4
:103B3C003B68DB6800F051F97B681B689A687B680E
:103B4C001B6842F480429A603CE07B6818683B68D2
:103B5C0059683B68DB681A4600F0C8F87B681B683C
:103B6C005021184600F01FF92CE07B6818683B6860
:103B7C0059683B68DB681A4600F0E6F87B681B68FE
:103B8C006021184600F00FF91CE07B6818683B6850
:103B9C0059683B68DB681A4600F0A8F87B681B681C
:103BAC004021184600F0FFF80CE07B681A683B686F
:103BBC001B681946104600F0F6F803E00123FB736E
:103BCC0000E000BF7B68012283F83D207B68002267
:103BDC0083F83C20FB7B18461037BD4680BD80B473
:103BEC0083B000AF786000BF0C37BD4680BC704717
:103BFC0080B483B000AF786000BF0C37BD4680BC8A
:103C0C00704780B483B000AF786000BF0C37BD46FE
:103C1C0080BC704780B483B000AF786000BF0C37B5
:103C2C00BD4680BC7047000080B485B000AF7860A2
:103C3C0039607B681B68FB607B68294A93420BD018
:103C4C007B68B3F1804F07D07B68264A934203D040
:103C5C007B68254A934208D1FB6823F07003FB6014
:103C6C003B685B68FA681343FB607B681C4A9342B1
:103C7C000BD07B68B3F1804F07D07B68194A934215
:103C8C0003D07B68184A934208D1FB6823F4407335
:103C9C00FB603B68DB68FA681343FB60FB6823F04E
:103CAC0080023B685B691343FB607B68FA681A60AF
:103CBC003B689A687B68DA623B681A687B689A6230
:103CCC007B68074A934203D13B681A697B681A6385
:103CDC007B6801225A6100BF1437BD4680BC704717
:103CEC00002C0140000400400008004080B487B064
:103CFC0000AFF860B9607A60FB681B6A7B61FB6897
:103D0C001B6A23F00102FB681A62FB689B693B612A
:103D1C003B6923F0F0033B617B681B013A69134359
:103D2C003B617B6923F00A037B617A69BB681343AF
:103D3C007B61FB683A699A61FB687A691A6200BF19
:103D4C001C37BD4680BC704780B487B000AFF860AC
:103D5C00B9607A60FB681B6A7B61FB681B6A23F0A5
:103D6C001002FB681A62FB689B693B613B6923F498
:103D7C0070433B617B681B033A6913433B617B696E
:103D8C0023F0A0037B61BB681B017A6913437B6141
:103D9C00FB683A699A61FB687A691A6200BF1C3742
:103DAC00BD4680BC704780B485B000AF7860396088
:103DBC007B689B68FB60FB6823F07003FB603A68D0
:103DCC00FB68134343F00703FB607B68FA689A6057
:103DDC0000BF1437BD4680BC704780B487B000AFBD
:103DEC00F860B9607A603B60FB689B687B617B69BB
:103DFC0023F47F437B613B681A027B681A43BB68E0
:103E0C0013437A6913437B61FB687A699A6000BF3C
:103E1C001C37BD4680BC704780B485B000AF78605D
:103E2C0039607B6893F83C30012B01D1022346E0CA
:103E3C007B68012283F83C207B68022283F83D20BA
:103E4C007B681B685B68FB607B681B689B68BB605E
:103E5C00FB6823F07003FB603B681B68FA68134334
:103E6C00FB607B681B68FA685A607B681B68164AA3
:103E7C0093420ED07B681B68B3F1804F09D07B68EE
:103E8C001B68124A934204D07B681B68104A934209
:103E9C000CD1BB6823F08003BB603B685B68BA68DD
:103EAC001343BB607B681B68BA689A607B6801220D
:103EBC0083F83D207B68002283F83C2000231846C1
:103ECC001437BD4680BC7047002C014000040040F4
:103EDC000008004080B483B000AF786000BF0C379E
:103EEC00BD4680BC704780B483B000AF786000BF23
:103EFC000C37BD4680BC704780B582B000AF78608F
:103F0C007B68002B01D1012342E07B6893F84130A0
:103F1C00DBB2002B06D17B68002283F84020786846
:103F2C00FCF734FD7B68242283F841207B681B68F6
:103F3C00DA687B681B6822F40052DA60786800F05B
:103F4C00C5FD7B681B681A697B681B6822F490426C
:103F5C001A617B681B685A697B681B6822F02A020D
:103F6C005A617B681B68DA687B681B6842F40052F4
:103F7C00DA607B6800225A647B68202283F8412037
:103F8C007B68202283F842207B6800225A6300233E
:103F9C0018460837BD4680BD80B58AB002AFF860C0
:103FAC00B9603B601346FB8000237B61FB6893F890
:103FBC004130DBB2202B6DD1BB68002B02D0FB88CB
:103FCC00002B01D1012366E0FB6800225A64FB68D8
:103FDC00212283F84120FCF7F7FD7861FB68FA8811
:103FEC009A84FB68FA88DA84FB689B68B3F5805F77
:103FFC0008D1FB681B69002B04D10023FB61BB6853
:10400C00BB6103E0BB68FB610023BB612AE03B683A
:10401C0000937B6900228021F86800F014FB0346B2
:10402C00002B01D0032336E0FB69002B0BD1BB69BD
:10403C001B881A46FB681B68C2F308025A60BB69EE
:10404C000233BB6107E0FB691A78FB681B685A6096
:10405C00FB690133FB61FB68DB8C9BB2013B9AB2C1
:10406C00FB68DA84FB68DB8C9BB2002BCFD13B68FE
:10407C0000937B6900224021F86800F0E4FA0346C3
:10408C00002B01D0032306E0FB68202283F841209B
:10409C00002300E0022318462037BD4680BD80B5C2
:1040AC0084B000AFF860B9601346FB80FB6893F8EE
:1040BC004230DBB2202B12D1BB68002B02D0FB8824
:1040CC00002B01D101230BE0FB6800221A63FB8853
:1040DC001A46B968F86800F024FB034600E0022396
:1040EC0018461037BD4680BD80B5BAB000AF7860B9
:1040FC007B681B681B68C7F8E4307B681B68DB684F
:10410C00C7F8E0307B681B685B69C7F8DC300023BC
:10411C00C7F8D8300023C7F8D430D7F8E43003F010
:10412C000F03C7F8D830D7F8D830002B0FD1D7F8F9
:10413C00E43003F02003002B09D0D7F8E03003F073
:10414C002003002B03D0786800F001FC5BE2D7F869
:10415C00D830002B00F0DE80D7F8DC3003F0010300
:10416C00002B06D1D7F8E03003F49073002B00F04D
:10417C00D180D7F8E43003F00103002B0BD0D7F833
:10418C00E03003F48073002B05D07B685B6C43F04C
:10419C0001027B685A64D7F8E43003F00403002B67
:1041AC000BD0D7F8DC3003F00103002B05D07B6873
:1041BC005B6C43F002027B685A64D7F8E43003F07E
:1041CC000203002B0BD0D7F8DC3003F00103002BDB
:1041DC0005D07B685B6C43F004027B685A64D7F8AB
:1041EC00E43003F00803002B11D0D7F8E03003F0D3
:1041FC002003002B05D1D7F8DC3003F00103002B92
:10420C0005D07B685B6C43F008027B685A647B6862
:10421C005B6C002B00F0F281D7F8E43003F0200344
:10422C00002B08D0D7F8E03003F02003002B02D08D
:10423C00786800F08CFB7B681B685B6903F04003BB
:10424C00002B14BF01230023DBB2C7F8D4307B68EA
:10425C005B6C03F00803002B03D1D7F8D430002B90
:10426C004FD0786800F096FA7B681B685B6903F0A6
:10427C004003002B41D07B681B681433C7F89C307B
:10428C00D7F89C3053E8003FC7F89830D7F89830EF
:10429C0023F04003C7F8D0307B681B681433D7F881
:1042AC00D020C7F8A820C7F8A430D7F8A410D7F8A6
:1042BC00A82041E80023C7F8A030D7F8A030002B85
:1042CC00D9D17B68DB6B002B13D07B68DB6B7E4A10
:1042DC005A637B68DB6B1846FCF7C8FD0346002B62
:1042EC0016D07B68DB6B5B6B7A68D26B1046984799
:1042FC000EE0786800F093F90AE0786800F08FF926
:10430C0006E0786800F08BF97B6800225A6475E14E
:10431C0000BF73E17B681B6B012B40F04F81D7F81A
:10432C00E43003F01003002B00F04881D7F8E030A4
:10433C0003F01003002B00F041810023BB607B686D
:10434C001B681B68BB607B681B685B68BB60BB68D9
:10435C007B681B685B6903F04003002B00F0B680A0
:10436C007B68DB6B1B685B68A7F8BE30B7F8BE30A8
:10437C00002B00F045817B689B8DB7F8BE209A42DC
:10438C0080F03E817B68B7F8BE20DA857B68DB6BFA
:10439C009B69202B00F088807B681B680C33C7F866
:1043AC008830D7F8883053E8003FC7F88430D7F806
:1043BC00843023F48073C7F8B8307B681B680C33E7
:1043CC00D7F8B820C7F89420C7F89030D7F89010D9
:1043DC00D7F8942041E80023C7F88C30D7F88C30FC
:1043EC00002BD9D17B681B6814337B677B6F53E838
:1043FC00003F3B673B6F23F00103C7F8B4307B6889
:10440C001B681433D7F8B420C7F88020FB67F96F0A
:10441C00D7F8802041E80023BB67BB6F002BE1D1AC
:10442C007B681B6814333B663B6E53E8003FFB65AF
:10443C00FB6D23F04003C7F8B0307B681B68143366
:10444C00D7F8B020FA66BB66B96EFA6E41E8002365
:10445C007B667B6E002BE3D17B68202283F84220A5
:10446C007B6800221A637B681B680C33FB64FB6C53
:10447C0053E8003FBB64BB6C23F01003C7F8AC30AF
:10448C007B681B680C33D7F8AC20BA657B65796DFB
:10449C00BA6D41E800233B653B6D002BE3D17B6893
:1044AC00DB6B1846FCF7A7FC7B6802225A637B681F
:1044BC009A8D7B68DB8D9BB2D31A9BB219467868B8
:1044CC0000F0B6F89CE000BF654800087B689A8D48
:1044DC007B68DB8D9BB2D31AA7F8CE307B68DB8D63
:1044EC009BB2002B00F08E80B7F8CE30002B00F082
:1044FC0089807B681B680C33BB63BB6B53E8003F44
:10450C007B637B6B23F49073C7F8C8307B681B68A4
:10451C000C33D7F8C8207A643B64396C7A6C41E868
:10452C000023FB63FB6B002BE3D17B681B6814330C
:10453C007B627B6A53E8003F3B623B6A23F00103DA
:10454C00C7F8C4307B681B681433D7F8C4203A63AF
:10455C00FB62F96A3A6B41E80023BB62BB6A002B31
:10456C00E3D17B68202283F842207B6800221A6307
:10457C007B681B680C333B613B6953E8003FFB6075
:10458C00FB6823F01003C7F8C0307B681B680C3342
:10459C00D7F8C020FA61BB61B969FA6941E8002318
:1045AC007B617B69002BE3D17B6802225A63B7F8ED
:1045BC00CE301946786800F03BF823E0D7F8E430A9
:1045CC0003F08003002B09D0D7F8E03003F0800310
:1045DC00002B03D0786800F053F914E0D7F8E430DE
:1045EC0003F04003002B0ED0D7F8E03003F040036B
:1045FC00002B08D0786800F092F904E000BF02E0CC
:10460C0000BF00E000BFE837BD4680BD80B483B07A
:10461C0000AF786000BF0C37BD4680BC704780B4DB
:10462C0083B000AF786000BF0C37BD4680BC7047CC
:10463C0080B483B000AF78600B467B8000BF0C3732
:10464C00BD4680BC704780B590B000AFF860B960D3
:10465C003B601346FB7150E0BB6CB3F1FF3F4CD099
:10466C00BB6C002B07D0FCF7AFFA02463B68D31AA1
:10467C00BA6C9A4241D2FB681B680C33BB62BB6AB2
:10468C0053E8003F7B627B6A23F4D073FB63FB68C7
:10469C001B680C33FA6B7A633B63396B7A6B41E8BA
:1046AC000023FB62FB6A002BE5D1FB681B6814330B
:1046BC007B617B6953E8003F3B613B6923F001035D
:1046CC00BB63FB681B681433BA6B3A62FB61F96914
:1046DC003A6A41E80023BB61BB69002BE5D1FB685A
:1046EC00202283F84120FB68202283F84220FB68BB
:1046FC00002283F8402003230FE0FB681B681A6834
:10470C00BB681340BA689A420CBF01230023DBB28A
:10471C001A46FB799A429FD0002318464037BD4673
:10472C0080BD80B485B000AFF860B9601346FB80E3
:10473C00FB68BA689A62FB68FA889A85FB68FA8803
:10474C00DA85FB6800225A64FB68222283F8422037
:10475C00FB681B69002B07D0FB681B68DA68FB68D9
:10476C001B6842F48072DA60FB681B685A69FB684C
:10477C001B6842F001025A61FB681B68DA68FB682F
:10478C001B6842F02002DA60002318461437BD463D
:10479C0080BC704780B495B000AF78607B681B68B4
:1047AC000C337B637B6B53E8003F3B633B6B23F425
:1047BC009073FB647B681B680C33FA6C3A64FB6384
:1047CC00F96B3A6C41E80023BB63BB6B002BE5D162
:1047DC007B681B6814333B623B6A53E8003FFB6108
:1047EC00FB6923F00103BB647B681B681433BA6C50
:1047FC00FA62BB62B96AFA6A41E800237B627B6A9F
:10480C00002BE5D17B681B6B012B19D17B681B68D6
:10481C000C33FB60FB6853E8003FBB60BB6823F0C4
:10482C0010037B647B681B680C337A6CBA617B6108
:10483C007969BA6941E800233B613B69002BE5D1FA
:10484C007B68202283F842207B6800221A6300BF19
:10485C005437BD4680BC704780B584B000AF7860DB
:10486C007B685B6AFB60FB680022DA85FB680022D0
:10487C00DA84F868FFF7D3FE00BF1037BD4680BD61
:10488C0080B485B000AF78607B6893F84130DBB2C0
:10489C00212B3ED17B689B68B3F5805F14D17B687C
:1048AC001B69002B10D17B681B6AFB60FB681B88A3
:1048BC001A467B681B68C2F308025A607B681B6A45
:1048CC009A1C7B681A6208E07B681B6A591C7A6820
:1048DC0011621A787B681B685A607B68DB8C9BB210
:1048EC00013B9BB27A681946D184002B0FD17B68AF
:1048FC001B68DA687B681B6822F08002DA607B68D0
:10490C001B68DA687B681B6842F04002DA6000239F
:10491C0000E0022318461437BD4680BC704780B5B2
:10492C0082B000AF78607B681B68DA687B681B68B4
:10493C0022F04002DA607B68202283F841207868FC
:10494C00FFF764FE002318460837BD4680BD80B5CE
:10495C008CB000AF78607B6893F84230DBB2222BCE
:10496C0040F0AE807B689B68B3F5805F17D17B68A5
:10497C001B69002B13D10023FB627B689B6ABB6213
:10498C007B681B685B689BB2C3F308039AB2BB6A73
:10499C001A807B689B6A9A1C7B689A6226E07B680B
:1049AC009B6AFB620023BB627B689B68B3F5805FEC
:1049BC0007D07B689B68002B0AD17B681B69002B96
:1049CC0006D17B681B685B68DAB2FB6A1A7008E078
:1049DC007B681B685B68DBB203F07F03DAB2FB6AAF
:1049EC001A707B689B6A5A1C7B689A627B68DB8DA9
:1049FC009BB2013B9BB27A681946D185002B5DD1E5
:104A0C007B681B68DA687B681B6822F02002DA601E
:104A1C007B681B68DA687B681B6822F48072DA603A
:104A2C007B681B685A697B681B6822F001025A611B
:104A3C007B68202283F842207B6800225A637B68C3
:104A4C001B6B012B35D17B6800221A637B681B68BA
:104A5C000C337B617B6953E8003F3B613B6923F07E
:104A6C0010037B627B681B680C337A6A3A62FB61C9
:104A7C00F9693A6A41E80023BB61BB69002BE5D1B7
:104A8C007B681B681B6803F01003102B0AD10023F2
:104A9C00FB607B681B681B68FB607B681B685B6842
:104AAC00FB60FB687B689B8D19467868FFF7C0FD3F
:104ABC0002E07868FBF78EFB002302E0002300E0A5
:104ACC00022318463037BD4680BD000080B584B047
:104ADC0000AF78607B681B681B6923F440517B68CE
:104AEC00DA687B681B680A431A617B689A687B6882
:104AFC001B691A437B685B691343BB607B681B684B
:104B0C00DB6823F4B05323F00C037A681268B9689D
:104B1C000B43D3607B681B685B6923F440717B6833
:104B2C009A697B681B680A435A617B681B682C4A2C
:104B3C00934203D1FEF7FAFCF86002E0FEF7E2FCC8
:104B4C00F860FA6813469B0013449A001A447B6879
:104B5C005B689B00B2FBF3F3224AA2FB03235B09C5
:104B6C001901FA6813469B0013449A001A447B6897
:104B7C005B689B00B2FBF3F21A4BA3FB02035B09CD
:104B8C00642000FB03F3D31A1B013233154AA2FB3A
:104B9C0003235B0903F0F0031944FA6813469B00E6
:104BAC0013449A001A447B685B689B00B2FBF3F2D7
:104BBC000C4BA3FB02035B09642000FB03F3D31A29
:104BCC001B013233074AA2FB03235B0903F00F02DC
:104BDC007B681B680A449A6000BF1037BD4680BDD5
:104BEC00003801401F85EB5184B080B483B000AF16
:104BFC00786007F1140080E80E00002318460C378B
:104C0C00BD4680BC04B0704780B485B000AF7860FE
:104C1C007B680022A3F844204FF43F43FB60FB6801
:104C2C009AB27B68A3F84020002318461437BD467F
:104C3C0080BC704780B485B000AF78604FF43F43C0
:104C4C00FB607B68B3F840309AB2FB689BB2DB43E5
:104C5C009BB213409AB27B68A3F8402000231846FD
:104C6C001437BD4680BC704780B483B000AF786009
:104C7C000B46FB70002318460C37BD4680BC7047B2
:104C8C0084B080B483B000AF786007F1140080E882
:104C9C000E007B680122A3F840207B680022A3F859
:104CAC0040207B680022A3F844207B680022A3F8F4
:104CBC005020002318460C37BD4680BC04B070470A
:104CCC0080B49DB000AF78603960002387F86F30F6
:104CDC007A683B681B789B0013441B889BB223F4B7
:104CEC00EC4323F07003A7F86C303B68DB78032BA4
:104CFC001FD801A252F823F0154D0008314D0008C1
:104D0C00474D0008234D0008B7F86C3043F400738E
:104D1C00A7F86C3012E0B7F86C3043F4C063A7F816
:104D2C006C300BE0B7F86C3043F48063A7F86C3050
:104D3C0004E0012387F86F3000E000BF7A683B681D
:104D4C001B789B001A44B7F86C3043F07F4343F454
:104D5C007F0343F4004343F080039BB213807A68D3
:104D6C003B681B789B0013441B889BB223F4E043E5
:104D7C0023F070039AB23B681B789BB21343A7F8DD
:104D8C0066307A683B681B789B001A44B7F866302B
:104D9C0043F07F4343F47F0343F4004343F0800329
:104DAC009BB213803B681B7B002B40F078813B68E7
:104DBC005B78002B00F084807B68BB617B68B3F868
:104DCC0050309BB21A46BB691344BB613B681B78DD
:104DDC001A01BB69134403F580637B613B68DB8874
:104DEC005B089BB25B009AB27B691A807A683B685D
:104DFC001B789B0013441B887B827B8A03F0400347
:104E0C00002B1BD07A683B681B789B0013441B88D3
:104E1C009BB223F4E04323F070033B827A683B6837
:104E2C001B789B001A443B8A43F07F4343F47F0377
:104E3C0043F4004343F0C0039BB213803B68DB7820
:104E4C00012B20D07A683B681B789B0013441B888D
:104E5C009BB223F4E04323F04003BB81BB8983F076
:104E6C002003BB817A683B681B789B001A44BB8982
:104E7C0043F07F4343F47F0343F4004343F0800348
:104E8C009BB21380D5E27A683B681B789B00134475
:104E9C001B889BB223F4E04323F04003FB817A6828
:104EAC003B681B789B001A44FB8943F07F4343F417
:104EBC007F0343F4004343F080039BB21380B8E2BA
:104ECC007B683B637B68B3F850309BB21A463B6BF4
:104EDC0013443B633B681B781A013B6B134403F58B
:104EEC008163FB623B68DB885B089BB25B009AB218
:104EFC00FB6A1A807B68BB627B68B3F850309BB24C
:104F0C001A46BB6A1344BB623B681B781A01BB6A26
:104F1C00134403F20C437B627B6A1B889BB2C3F382
:104F2C0009039AB27B6A1A803B681B693E2B1DD918
:104F3C003B681B695B09BB663B681B6903F01F037D
:104F4C00002B02D1BB6E013BBB667B6A1B889AB2FD
:104F5C00BB6E9BB29B029BB213439BB26FEA434363
:104F6C006FEA53439AB27B6A1A8026E03B681B694E
:104F7C00002B0AD17B6A1B889BB26FEA43436FEA12
:104F8C0053439AB27B6A1A8017E03B681B695B0833
:104F9C00BB663B681B6903F00103002B02D0BB6EA0
:104FAC000133BB667B6A1B889AB2BB6E9BB29B02B9
:104FBC009BB213439AB27B6A1A807A683B681B785F
:104FCC009B0013441B887B847B8C03F48043002B55
:104FDC001BD07A683B681B789B0013441B889BB2E0
:104FEC0023F4E04323F070033B847A683B681B781E
:104FFC009B001A443B8C43F07F4343F47F0343F400
:10500C00404343F080039BB213803B681B78002B1A
:10501C0024D17A683B681B789B0013441B889BB295
:10502C0023F4804323F07003BB83BB8B83F4805346
:10503C00BB83BB8B83F40053BB837A683B681B78C0
:10504C009B001A44BB8B43F07F4343F47F0343F430
:10505C00004343F080039BB21380EAE17A683B681B
:10506C001B789B0013441B889BB223F4804323F0D2
:10507C007003FB83FB8B83F40053FB837A683B68E0
:10508C001B789B001A44FB8B43F07F4343F47F0354
:10509C0043F4004343F080039BB21380C9E13B68A7
:1050AC00DB78022B1ED17A683B681B789B0013447B
:1050BC001B889BB223F4E04323F07003A7F8623003
:1050CC007A683B681B789B001A44B7F8623043F04F
:1050DC007F4343F47F0343F4014343F080039BB2CB
:1050EC0013801DE07A683B681B789B0013441B8877
:1050FC009BB223F4E24323F07003A7F864307A6880
:10510C003B681B789B001A44B7F8643043F07F432C
:10511C0043F47F0343F4004343F080039BB21380BA
:10512C007B68FB657B68B3F850309BB21A46FB6D0D
:10513C001344FB653B681B781A01FB6D134403F5A4
:10514C008063BB653B681B895B089BB25B009AB2B2
:10515C00BB6D1A807B687B657B68B3F850309BB263
:10516C001A467B6D13447B653B681B781A017B6D7B
:10517C00134403F581633B653B685B895B089BB219
:10518C005B009AB23B6D1A803B685B78002B40F059
:10519C0093807A683B681B789B0013441B88A7F8A4
:1051AC004030B7F8403003F48043002B1BD07A68B2
:1051BC003B681B789B0013441B889BB223F4E04391
:1051CC0023F07003FB877A683B681B789B001A44BA
:1051DC00FB8F43F07F4343F47F0343F4404343F09E
:1051EC0080039BB213807A683B681B789B00134446
:1051FC001B88BB87BB8F03F04003002B1BD07A6846
:10520C003B681B789B0013441B889BB223F4E04340
:10521C0023F070037B877A683B681B789B001A44E9
:10522C007B8F43F07F4343F47F0343F4004343F00D
:10523C00C0039BB213807A683B681B789B001344B5
:10524C001B889BB223F4804323F070033B873B8F76
:10525C0083F480533B873B8F83F400533B877A68FE
:10526C003B681B789B001A443B8F43F07F4343F40D
:10527C007F0343F4004343F080039BB213807A68AE
:10528C003B681B789B0013441B889BB223F4E043C0
:10529C0023F04003FB867A683B681B789B001A441A
:1052AC00FB8E43F07F4343F47F0343F4004343F00E
:1052BC0080039BB21380BCE07A683B681B789B0030
:1052CC0013441B88A7F84E30B7F84E3003F48043D4
:1052DC00002B1DD07A683B681B789B0013441B88FD
:1052EC009BB223F4E04323F07003A7F84C307A68A8
:1052FC003B681B789B001A44B7F84C3043F07F4353
:10530C0043F47F0343F4404343F080039BB2138088
:10531C007A683B681B789B0013441B88A7F84A30BB
:10532C00B7F84A3003F04003002B1DD07A683B6875
:10533C001B789B0013441B889BB223F4E04323F09F
:10534C007003A7F848307A683B681B789B001A44B6
:10535C00B7F8483043F07F4343F47F0343F40043F2
:10536C0043F0C0039BB213803B68DB78012B24D045
:10537C007A683B681B789B0013441B889BB223F410
:10538C00E04323F04003A7F84430B7F8443083F0EF
:10539C002003A7F844307A683B681B789B001A44BA
:1053AC00B7F8443043F07F4343F47F0343F40043A6
:1053BC0043F080039BB213801DE07A683B681B7836
:1053CC009B0013441B889BB223F4E04323F040035F
:1053DC00A7F846307A683B681B789B001A44B7F8EC
:1053EC00463043F07F4343F47F0343F4004343F0E0
:1053FC0080039BB213807A683B681B789B00134434
:10540C001B889BB223F4804323F07003A7F842302F
:10541C007A683B681B789B001A44B7F8423043F01B
:10542C007F4343F47F0343F4004343F080039BB278
:10543C00138097F86F3018467437BD4680BC7047A0
:10544C0080B48DB000AF786039603B681B7B002B5B
:10545C0040F08E803B685B78002B44D07A683B68C8
:10546C001B789B0013441B88BB81BB8903F0400352
:10547C00002B1BD07A683B681B789B0013441B885D
:10548C009BB223F4E04323F070037B817A683B6882
:10549C001B789B001A447B8943F07F4343F47F03C2
:1054AC0043F4004343F0C0039BB213807A683B681B
:1054BC001B789B0013441B889BB223F4E04323F01E
:1054CC0040033B817A683B681B789B001A443B89FC
:1054DC0043F07F4343F47F0343F4004343F08003E2
:1054EC009BB2138092E17A683B681B789B00134453
:1054FC001B887B827B8A03F48043002B1BD07A6849
:10550C003B681B789B0013441B889BB223F4E0433D
:10551C0023F070033B827A683B681B789B001A442B
:10552C003B8A43F07F4343F47F0343F4404343F00F
:10553C0080039BB213807A683B681B789B001344F2
:10554C001B889BB223F4804323F07003FB817A68A1
:10555C003B681B789B001A44FB8943F07F4343F460
:10556C007F0343F4004343F080039BB213804DE16F
:10557C003B685B78002B40F0A5807A683B681B7811
:10558C009B0013441B883B843B8C03F48043002B0F
:10559C001BD07A683B681B789B0013441B889BB21A
:1055AC0023F4E04323F07003FB837A683B681B7899
:1055BC009B001A44FB8B43F07F4343F47F0343F47B
:1055CC00404343F080039BB213807A683B681B789E
:1055DC009B0013441B88BB83BB8B03F04003002B45
:1055EC001BD07A683B681B789B0013441B889BB2CA
:1055FC0023F4E04323F070037B837A683B681B78C9
:10560C009B001A447B8B43F07F4343F47F0343F4AA
:10561C00004343F0C0039BB213807A683B681B784D
:10562C009B0013441B889BB223F4E04323F07003CC
:10563C003B837A683B681B789B001A443B8B43F096
:10564C007F4343F47F0343F4004343F0C0039BB216
:10565C0013807A683B681B789B0013441B889BB2B1
:10566C0023F4804323F07003FB827A683B681B7839
:10567C009B001A44FB8A43F07F4343F47F0343F4BB
:10568C00004343F080039BB213807A683B681B781D
:10569C009B0013441B889BB223F4E04323F040038C
:1056AC00BB827A683B681B789B001A44BB8A43F028
:1056BC007F4343F47F0343F4004343F080039BB2E6
:1056CC001380A3E07A683B681B789B0013441B880B
:1056DC00FB85FB8D03F48043002B1BD07A683B6861
:1056EC001B789B0013441B889BB223F4E04323F0EC
:1056FC007003BB857A683B681B789B001A44BB8D92
:10570C0043F07F4343F47F0343F4404343F080036F
:10571C009BB213807A683B681B789B0013441B88F0
:10572C007B857B8D03F04003002B1BD07A683B6894
:10573C001B789B0013441B889BB223F4E04323F09B
:10574C0070033B857A683B681B789B001A443B8D41
:10575C0043F07F4343F47F0343F4004343F0C0031F
:10576C009BB213807A683B681B789B0013441B88A0
:10577C009BB223F4E04323F07003FB847A683B680C
:10578C001B789B001A44FB8C43F07F4343F47F034C
:10579C0043F4404343F080039BB213807A683B6828
:1057AC001B789B0013441B889BB223F4E04323F02B
:1057BC004003BB847A683B681B789B001A44BB8C03
:1057CC0043F07F4343F47F0343F4004343F08003EF
:1057DC009BB213807A683B681B789B0013441B8830
:1057EC009BB223F4804323F070037B847A683B687C
:1057FC001B789B001A447B8C43F07F4343F47F035C
:10580C0043F4004343F080039BB2138000231846FB
:10581C003437BD4680BC704780B5C2B000AF07F5C9
:10582C008473A3F58273186007F58473A3F58473EE
:10583C00196007F58473A3F584731B685B78012BDF
:10584C0040F0B78607F58473A3F584731B689A69D7
:10585C0007F58473A3F584731B681B699A4208D9F6
:10586C0007F58473A3F584731B681B69C7F80431AF
:10587C0007E007F58473A3F584731B689B69C7F86D
:10588C00043107F58473A3F584731B681B7B002B11
:10589C003AD107F58473A3F584731B68596907F52E
:1058AC008473A3F584731B68DA88D7F804319BB230
:1058BC0007F58470A0F58270006801F09CFC07F578
:1058CC008473A3F582731B683B6107F58473A3F59E
:1058DC0082731B68B3F850309BB21A463B69134471
:1058EC003B6107F58473A3F584731B681B781A015D
:1058FC003B69134403F20443FB60D7F804319AB2BA
:10590C00FB681A8000F01FBE07F58473A3F584733F
:10591C001B68DB78022B40F0628407F58473A3F5D7
:10592C0084731B681A6A07F58473A3F584731B6868
:10593C001B699A4240F2DF8307F58473A3F58273E7
:10594C001A6807F58473A3F584731B681B789B0096
:10595C0013441B889BB223F4E04323F07003A7F895
:10596C00563007F58473A3F582731A6807F58473B0
:10597C00A3F584731B681B789B001A44B7F8563048
:10598C0043F07F4343F47F0343F4014343F080032C
:10599C009BB2138007F58473A3F584731B681A6A92
:1059AC00D7F80431D21A07F58473A3F584731B68F6
:1059BC001A6207F58473A3F582731A6807F584736A
:1059CC00A3F584731B681B789B0013441B889BB244
:1059DC0003F04003002B00F0C78107F58473A3F597
:1059EC0082731B683B6307F58473A3F584731B6890
:1059FC005B78002B77D107F58473A3F582731B6852
:105A0C00BB6207F58473A3F582731B68B3F850303F
:105A1C009BB21A46BB6A1344BB6207F58473A3F5A9
:105A2C0084731B681B781A01BB6A134403F20C4382
:105A3C007B627B6A1B889BB2C3F309039AB27B6AB5
:105A4C001A80D7F804313E2B21D9D7F804315B09E1
:105A5C00C7F80031D7F8043103F01F03002B04D131
:105A6C00D7F80031013BC7F800317B6A1B889AB22A
:105A7C00D7F800319BB29B029BB213439BB26FEAE7
:105A8C0043436FEA53439AB27B6A1A8050E0D7F8CB
:105A9C000431002B0AD17B6A1B889BB26FEA43430B
:105AAC006FEA53439AB27B6A1A8041E0D7F804310B
:105ABC005B08C7F80031D7F8043103F00103002B61
:105ACC0004D0D7F800310133C7F800317B6A1B884A
